:100000000C9434000C9446000C9446000C9446006A
:100010000C9446000C9446000C9446000C94460048
:100020000C9446000C9446000C9446000C94460038
:100030000C9446000C9446000C9446000C94460028
:100040000C9446000C9446000C947F000C944600DF
:100050000C9446000C9446000C9446000C94460008
:100060000C9446000C94460011241FBECFEFD8E03C
:10007000DEBFCDBF21E0A0E0B1E001C01D92A13004
:10008000B207E1F70E946E000C949E000C940000F1
:100090008AB18E7F8AB98AB182608AB9E0ECF0E0D9
:1000A0001082808182608083E1ECF0E010828081A8
:1000B00088698083E2ECF0E0108280818660808332
:1000C0008FEC90E09093C5008093C40008959091C8
:1000D000C00095FFFCCF8093C60008958CEF8AB9CD
:1000E00083E084B90E944800789488E40E94670005
:1000F00089E60E9467008AE00E946700FFCF1F9296
:100100000F920FB60F9211248F938091C6008093A7
:1001100000018091C00085FFFCCF80910001809399
:10012000C600809100018BB980910001837085B970
:100130008F910F900FBE0F901F901895F894FFCFDE
:00000001FF
